{
  "_format": "hh-sol-artifact-1",
  "contractName": "basicContract",
  "sourceName": "contracts/basicContract.sol",
  "abi": [
    {
      "inputs": [],
      "stateMutability": "nonpayable",
      "type": "constructor"
    },
    {
      "anonymous": false,
      "inputs": [
        {
          "indexed": false,
          "internalType": "uint256",
          "name": "newCookieCount",
          "type": "uint256"
        }
      ],
      "name": "newCookie",
      "type": "event"
    },
    {
      "anonymous": false,
      "inputs": [
        {
          "indexed": false,
          "internalType": "string",
          "name": "newName",
          "type": "string"
        }
      ],
      "name": "newRegistration",
      "type": "event"
    },
    {
      "inputs": [],
      "name": "contractName",
      "outputs": [
        {
          "internalType": "string",
          "name": "",
          "type": "string"
        }
      ],
      "stateMutability": "view",
      "type": "function"
    },
    {
      "inputs": [],
      "name": "cookieSupply",
      "outputs": [
        {
          "internalType": "int256",
          "name": "",
          "type": "int256"
        }
      ],
      "stateMutability": "view",
      "type": "function"
    },
    {
      "inputs": [],
      "name": "getCookie",
      "outputs": [],
      "stateMutability": "nonpayable",
      "type": "function"
    },
    {
      "inputs": [
        {
          "internalType": "address",
          "name": "",
          "type": "address"
        }
      ],
      "name": "homieMapping",
      "outputs": [
        {
          "internalType": "string",
          "name": "name",
          "type": "string"
        },
        {
          "internalType": "uint256",
          "name": "cookies",
          "type": "uint256"
        }
      ],
      "stateMutability": "view",
      "type": "function"
    },
    {
      "inputs": [
        {
          "internalType": "string",
          "name": "_name",
          "type": "string"
        }
      ],
      "name": "homieRegister",
      "outputs": [],
      "stateMutability": "nonpayable",
      "type": "function"
    },
    {
      "inputs": [],
      "name": "owner",
      "outputs": [
        {
          "internalType": "address",
          "name": "",
          "type": "address"
        }
      ],
      "stateMutability": "view",
      "type": "function"
    }
  ],
  "bytecode": "0x60806040526040518060400160405280600e81526020017f426173696320436f6e7472616374000000000000000000000000000000000000815250600090816200004a91906200031f565b5060146001553480156200005d57600080fd5b5033600260006101000a81548173ffffffffffffffffffffffffffffffffffffffff021916908373ffffffffffffffffffffffffffffffffffffffff16021790555062000406565b600081519050919050565b7f4e487b7100000000000000000000000000000000000000000000000000000000600052604160045260246000fd5b7f4e487b7100000000000000000000000000000000000000000000000000000000600052602260045260246000fd5b600060028204905060018216806200012757607f821691505b6020821081036200013d576200013c620000df565b5b50919050565b60008190508160005260206000209050919050565b60006020601f8301049050919050565b600082821b905092915050565b600060088302620001a77fffffffffffffffffffffffffffffffffffffffffffffffffffffffffffffffff8262000168565b620001b3868362000168565b95508019841693508086168417925050509392505050565b6000819050919050565b6000819050919050565b600062000200620001fa620001f484620001cb565b620001d5565b620001cb565b9050919050565b6000819050919050565b6200021c83620001df565b620002346200022b8262000207565b84845462000175565b825550505050565b600090565b6200024b6200023c565b6200025881848462000211565b505050565b5b8181101562000280576200027460008262000241565b6001810190506200025e565b5050565b601f821115620002cf57620002998162000143565b620002a48462000158565b81016020851015620002b4578190505b620002cc620002c38562000158565b8301826200025d565b50505b505050565b600082821c905092915050565b6000620002f460001984600802620002d4565b1980831691505092915050565b60006200030f8383620002e1565b9150826002028217905092915050565b6200032a82620000a5565b67ffffffffffffffff811115620003465762000345620000b0565b5b6200035282546200010e565b6200035f82828562000284565b600060209050601f83116001811462000397576000841562000382578287015190505b6200038e858262000301565b865550620003fe565b601f198416620003a78662000143565b60005b82811015620003d157848901518255600182019150602085019450602081019050620003aa565b86831015620003f15784890151620003ed601f891682620002e1565b8355505b6001600288020188555050505b505050505050565b610caa80620004166000396000f3fe608060405234801561001057600080fd5b50600436106100625760003560e01c806307bbb827146100675780632ad80623146100985780633fe092d9146100b457806375d0c0dc146100d25780638da5cb5b146100f0578063eedf71e71461010e575b600080fd5b610081600480360381019061007c9190610590565b610118565b60405161008f929190610666565b60405180910390f35b6100b260048036038101906100ad91906107cb565b6101c4565b005b6100bc610296565b6040516100c9919061082d565b60405180910390f35b6100da61029c565b6040516100e79190610848565b60405180910390f35b6100f861032a565b6040516101059190610879565b60405180910390f35b610116610350565b005b600360205280600052604060002060009150905080600001805461013b906108c3565b80601f0160208091040260200160405190810160405280929190818152602001828054610167906108c3565b80156101b45780601f10610189576101008083540402835291602001916101b4565b820191906000526020600020905b81548152906001019060200180831161019757829003601f168201915b5050505050908060010154905082565b80600360003373ffffffffffffffffffffffffffffffffffffffff1673ffffffffffffffffffffffffffffffffffffffff16815260200190815260200160002060000190816102139190610aa0565b506000600360003373ffffffffffffffffffffffffffffffffffffffff1673ffffffffffffffffffffffffffffffffffffffff168152602001908152602001600020600101819055507fdf4bad699a3672219fed0a3ae49b861f946f1f830ac0897d9f33853697e7d11e8160405161028b9190610848565b60405180910390a150565b60015481565b600080546102a9906108c3565b80601f01602080910402602001604051908101604052809291908181526020018280546102d5906108c3565b80156103225780601f106102f757610100808354040283529160200191610322565b820191906000526020600020905b81548152906001019060200180831161030557829003601f168201915b505050505081565b600260009054906101000a900473ffffffffffffffffffffffffffffffffffffffff1681565b600360003373ffffffffffffffffffffffffffffffffffffffff1673ffffffffffffffffffffffffffffffffffffffff16815260200190815260200160002060010160008154809291906103a390610ba1565b9190505550600160008154809291906103bb90610be9565b91905055506103e1604051806060016040528060288152602001610c4d6028913961045c565b7f5d8b46a6620e94ac29890960684537af1ed2e52f35c9ad68f6ba365f99f1595c600360003373ffffffffffffffffffffffffffffffffffffffff1673ffffffffffffffffffffffffffffffffffffffff168152602001908152602001600020600101546040516104529190610c31565b60405180910390a1565b6104f2816040516024016104709190610848565b6040516020818303038152906040527f41304fac000000000000000000000000000000000000000000000000000000007bffffffffffffffffffffffffffffffffffffffffffffffffffffffff19166020820180517bffffffffffffffffffffffffffffffffffffffffffffffffffffffff83818316178352505050506104f5565b50565b60008151905060006a636f6e736f6c652e6c6f679050602083016000808483855afa5050505050565b6000604051905090565b600080fd5b600080fd5b600073ffffffffffffffffffffffffffffffffffffffff82169050919050565b600061055d82610532565b9050919050565b61056d81610552565b811461057857600080fd5b50565b60008135905061058a81610564565b92915050565b6000602082840312156105a6576105a5610528565b5b60006105b48482850161057b565b91505092915050565b600081519050919050565b600082825260208201905092915050565b60005b838110156105f75780820151818401526020810190506105dc565b60008484015250505050565b6000601f19601f8301169050919050565b600061061f826105bd565b61062981856105c8565b93506106398185602086016105d9565b61064281610603565b840191505092915050565b6000819050919050565b6106608161064d565b82525050565b600060408201905081810360008301526106808185610614565b905061068f6020830184610657565b9392505050565b600080fd5b600080fd5b7f4e487b7100000000000000000000000000000000000000000000000000000000600052604160045260246000fd5b6106d882610603565b810181811067ffffffffffffffff821117156106f7576106f66106a0565b5b80604052505050565b600061070a61051e565b905061071682826106cf565b919050565b600067ffffffffffffffff821115610736576107356106a0565b5b61073f82610603565b9050602081019050919050565b82818337600083830152505050565b600061076e6107698461071b565b610700565b90508281526020810184848401111561078a5761078961069b565b5b61079584828561074c565b509392505050565b600082601f8301126107b2576107b1610696565b5b81356107c284826020860161075b565b91505092915050565b6000602082840312156107e1576107e0610528565b5b600082013567ffffffffffffffff8111156107ff576107fe61052d565b5b61080b8482850161079d565b91505092915050565b6000819050919050565b61082781610814565b82525050565b6000602082019050610842600083018461081e565b92915050565b600060208201905081810360008301526108628184610614565b905092915050565b61087381610552565b82525050565b600060208201905061088e600083018461086a565b92915050565b7f4e487b7100000000000000000000000000000000000000000000000000000000600052602260045260246000fd5b600060028204905060018216806108db57607f821691505b6020821081036108ee576108ed610894565b5b50919050565b60008190508160005260206000209050919050565b60006020601f8301049050919050565b600082821b905092915050565b6000600883026109567fffffffffffffffffffffffffffffffffffffffffffffffffffffffffffffffff82610919565b6109608683610919565b95508019841693508086168417925050509392505050565b6000819050919050565b600061099d6109986109938461064d565b610978565b61064d565b9050919050565b6000819050919050565b6109b783610982565b6109cb6109c3826109a4565b848454610926565b825550505050565b600090565b6109e06109d3565b6109eb8184846109ae565b505050565b5b81811015610a0f57610a046000826109d8565b6001810190506109f1565b5050565b601f821115610a5457610a25816108f4565b610a2e84610909565b81016020851015610a3d578190505b610a51610a4985610909565b8301826109f0565b50505b505050565b600082821c905092915050565b6000610a7760001984600802610a59565b1980831691505092915050565b6000610a908383610a66565b9150826002028217905092915050565b610aa9826105bd565b67ffffffffffffffff811115610ac257610ac16106a0565b5b610acc82546108c3565b610ad7828285610a13565b600060209050601f831160018114610b0a5760008415610af8578287015190505b610b028582610a84565b865550610b6a565b601f198416610b18866108f4565b60005b82811015610b4057848901518255600182019150602085019450602081019050610b1b565b86831015610b5d5784890151610b59601f891682610a66565b8355505b6001600288020188555050505b505050505050565b7f4e487b7100000000000000000000000000000000000000000000000000000000600052601160045260246000fd5b6000610bac8261064d565b91507fffffffffffffffffffffffffffffffffffffffffffffffffffffffffffffffff8203610bde57610bdd610b72565b5b600182019050919050565b6000610bf482610814565b91507f80000000000000000000000000000000000000000000000000000000000000008203610c2657610c25610b72565b5b600182039050919050565b6000602082019050610c466000830184610657565b9291505056fe5468697320697320612074657374206f6620736f6c6964697479206c6f6720676574436f6f6b6965a26469706673582212200cf6a492bf112f10f1c12970f48b3781c57df0ff0ac6bb77facb1225fe854b9564736f6c63430008120033",
  "linkReferences": {},
  "deployedLinkReferences": {}
}